:100000000C9434000C9451000C9451000C94510049
:100010000C9451000C9451000C9451000C9451001C
:100020000C9451000C9451000C9451000C94DD027E
:100030000C9451000C9451000C948E010C945100BE
:100040000C9451000C9451000C9451000C945100EC
:100050000C9451000C9451000C94C4030C94510066
:100060000C9451000C94510011241FBECFEFD8E026
:10007000DEBFCDBF11E0A0E0B1E0E6E2FAE002C0F1
:1000800005900D92A231B107D9F721E0A2E1B1E0CC
:1000900001C01D92A636B207E1F70E946D000C94D4
:1000A00011050C94000080911201893011F08F5FCE
:1000B00001C080E080931201805D80930D0108955E
:1000C00044E151E062E084E00E94DC0146E151E05D
:1000D00064E084E00E94DC0108950F93CF93DF93E6
:1000E00000D0CDB7DEB785E090E09A838983E4E164
:1000F000F1E082E582838FE090E09183808382E06B
:100100000E943901BE016F5F7F4F81E00E94CD01E7
:1001100060E070E084E00E94CD0143E550E060E0E3
:1001200081E00E94DC0140E050E061E081E00E945B
:10013000DC010E943A0300E029E130E043E066E0A0
:1001400071E08FE493E00E94430124E630E043E055
:1001500060E070E080E690E00E9443010E946E0142
:1001600080E090E00F900F90DF91CF910F91089574
:10017000CF93C82F0E94B2012C2F30E0C901880F05
:10018000991F220F331F220F331F220F331F820F9D
:10019000931F0E94F0039093180180931701E9E1E7
:1001A000F1E0C1831082938382831582148281E0FF
:1001B00080931301CF910895CF93DF93E9E1F1E0AC
:1001C000158214828081882369F1E0911B01F091EE
:1001D0001C0190E09C01220F331F880F991F880F8C
:1001E000991F880F991F280F391F2E0F3F1FC0E03E
:1001F000D0E0DF0186819781181619065CF08185B1
:10020000811108C0209729F098858085981708F0FB
:10021000DE01ED013A96E217F30759F7D0931E017C
:10022000C0931D01DF91CF9108958091190188231A
:10023000F9F0E0911B01F0911C0190E0AC01440F3A
:10024000551F880F991F880F991F880F991F480FF6
:10025000591F4E0F5F1F31E021852327868197812B
:10026000821B9109978386833A96E417F507A1F7D5
:10027000089590911301911105C00E94B80081E08A
:100280008093130108950F93CF93DF93E9E1F1E099
:10029000A0815181A517F0F4EF01B0E0FD01EE0F50
:1002A000FF1FAA0FBB1FAA0FBB1FAA0FBB1FAE0FBA
:1002B000BF1FEA81FB81EA0FFB1F91838083738359
:1002C000628335832483378326834087018788812F
:1002D0008F5F8883DF91CF910F91089582E08093A3
:1002E0006E0099EF97BD84BD789483E085BDC9E128
:1002F000D1E00E94DC00AC81BD811097D1F3ED917B
:10030000FC91119712968D919C9113970995EC8110
:10031000FD818481958197838683EBCF1F920F9215
:100320000FB60F9211242F933F934F935F936F93C8
:100330007F938F939F93AF93BF93EF93FF930E940D
:100340001501FF91EF91BF91AF919F918F917F9197
:100350006F915F914F913F912F910F900FBE0F9032
:100360001F901895CF93DF930E941202CFE1D1E046
:10037000998388830E948C029D838C830E94C6028D
:100380009B838A830E9428039F838E830E94A103FC
:1003900099878887DF91CF910895E82FCB01F0E00E
:1003A000EE0FFF1FE15EFE4F0190F081E02D019006
:1003B000F081E02D09950895E82FCA01F0E0EE0FD5
:1003C000FF1FE15EFE4FA081B181E62FF0E0BF018B
:1003D000660F771F1296ED91FC911397E60FF71FAA
:1003E0000190F081E02D09950895FC0194B1808180
:1003F000892B84B980E00895FC0195B18081892B17
:1004000085B980E00895FC0195B1808180958923AC
:1004100085B980E00895FC0195B18081892785B96F
:1004200080E00895A9E2B1E085EF91E011969C93F8
:100430008E93EDE2F1E08CEF91E09183808383E095
:1004400092E0938382838BE092E09583848313967A
:10045000FC93EE931297CD0108952C9893B1907F61
:100460008F70892B08952C9A8FE39FE10197F1F704
:1004700000C000002C980895CF93FC01C0812D98F6
:100480008C2F82950E942D0285B90E9433028C2FF9
:100490000E942D0285B90E94330280E0CF91089519
:1004A000CF93FC01C0812D9A8C2F82950E942D0242
:1004B00085B90E9433028C2F0E942D0285B90E94BB
:1004C000330280E0CF9108952D9882EC0E942D0296
:1004D00085B90E9433020E9433028CE20E942D02F1
:1004E00085B90E9433020895CF93DF931F92CDB751
:1004F000DEB78FE0898384B18F6384B985B180765C
:1005000085B90E946402CE0101960E943C0280E0FF
:100510000F90DF91CF910895E7E3F1E08CE392E053
:100520009383828380E592E091838083A3E3B1E0AB
:1005300084E792E011969C938E931396FC93EE932E
:100540001297CD010895FC01208184E090E0022EF5
:1005500002C0959587950A94E2F7809389002093CD
:10056000880082E080936F0078948FE08093810010
:1005700080E00895909344018093430180E00895C2
:10058000909346018093450180E00895EFE3F1E008
:100590008AEB92E09183808380EC92E09383828364
:1005A000ABE3B1E083EA92E011969C938E931396AD
:1005B000FC93EE931297CD0108951F920F920FB600
:1005C0000F9211242F933F934F935F936F937F93D9
:1005D0008F939F93AF93BF93EF93FF93A3E4B1E007
:1005E000ED91FC91119712968D919C91139709951D
:1005F000FF91EF91BF91AF919F918F917F916F91FB
:100600005F914F913F912F910F900FBE0F901F90D0
:1006100018953898ECE7F0E0808180648083EAE701
:10062000F0E08081876C808380E00895DC01909108
:100630007A0096FD0BC0EAE7F0E090819064908329
:1006400080917800909179008D939C9380E008953B
:1006500086E193E090934C0180934B01E7E4F1E055
:1006600089E093E0918380838BE491E0938382839C
:10067000CF01089560E070E082E00E94CD0141E189
:1006800051E061E082E00E94DC014FE051E061E076
:1006900082E00E94DC0110924D0180E008952091DB
:1006A0004D01820F911DFC012081222399F0AC01A4
:1006B00060E082E00E94DC0180914D018F5F8093B9
:1006C0004D01803179F440E151E061E082E00E9427
:1006D000DC0108954FE051E061E082E00E94DC011E
:1006E00010924D010895EEE4F1E01382128211821E
:1006F000108280E00895FC018081918192BD81BDCE
:1007000080E00895FB9A90934F0180934E0180E022
:100710000895FB9A909351018093500180E00895D1
:10072000F99905C0FC01808180BDFA9AF99A80E0B0
:100730000895F99904C0F89A20B5FC01208380E05F
:100740000895A2E5B1E083E793E011969C938E9320
:10075000E6E5F1E089E993E09387828780E993E019
:10076000918780878BE793E09583848382E893E089
:100770009183808389E893E0938382831396FC932B
:10078000EE931297CD0108951F920F920FB60F921C
:1007900011242F933F934F935F936F937F938F9386
:1007A0009F93AF93BF93EF93FF93AEE4B1E0ED91CE
:1007B000FC91119712968D919C9113970995FF9139
:1007C000EF91BF91AF919F918F917F916F915F91C9
:1007D0004F913F912F910F900FBE0F901F90189542
:1007E0000F931F93CF93DF938230910510F482E033
:1007F00090E0E0916401F091650120E030E0A0E03C
:10080000B0E0309719F1408151810281138148177E
:100810005907C8F08417950769F4109731F01296BC
:100820000C93129713961C9327C0009364011093A6
:10083000650122C02115310519F04217530718F43C
:100840009A01BD01EF01DF01F801DBCF2115310570
:10085000F9F0281B390B2430310580F48A819B8103
:100860006115710521F0FB019383828304C090938D
:10087000650180936401FE01329644C0FE01E20FDF
:10088000F31F8193919322503109398328833AC011
:100890002091620130916301232B41F420910201E8
:1008A0003091030130936301209362012091000194
:1008B000309101012115310541F42DB73EB740912A
:1008C000040150910501241B350BE0916201F09168
:1008D0006301E217F307A0F42E1B3F0B281739071B
:1008E00078F0AC014E5F5F4F2417350748F04E0F8C
:1008F0005F1F50936301409362018193919302C003
:10090000E0E0F0E0CF01DF91CF911F910F910895CA
:10091000CF93DF93009709F481C0FC0132971382D3
:100920001282A0916401B0916501109781F4208139
:100930003181820F931F209162013091630128174A
:10094000390751F5F0936301E093620167C0ED014F
:1009500020E030E0CE17DF0740F44A815B819E0142
:1009600041155105F1F0EA01F5CFD383C2834081EF
:100970005181840F951FC817D90759F4888199812F
:10098000840F951F0296918380838A819B81938334
:1009900082832115310529F4F0936501E093640108
:1009A0003DC0E901FB83EA8349915991C40FD51FEA
:1009B000EC17FD0761F480819181840F951F0296E9
:1009C000E90199838883828193819B838A83E0E014
:1009D000F0E012968D919C911397009719F0FD010C
:1009E000DC01F7CF8D919C9111979D012E5F3F4FB8
:1009F000820F931F209162013091630128173907FC
:100A000069F4309729F4109265011092640102C0D4
:100A100013821282B0936301A0936201DF91CF91A0
:060A20000895F894FFCFD9
:100A26000000660120006C6162656C3A203000802F
:020A3600C001FD
:00000001FF
