:100000000C9434000C9451000C9451000C94510049
:100010000C9451000C9451000C9451000C9451001C
:100020000C9451000C9451000C9451000C94150345
:100030000C9451000C9451000C94DB010C94510071
:100040000C9451000C9451000C9451000C945100EC
:100050000C9451000C9451000C9451000C945100DC
:100060000C9451000C94510011241FBECFEFD8E026
:10007000DEBFCDBF11E0A0E0B1E0EAE2F9E002C0EE
:1000800005900D92AC30B107D9F721E0ACE0B1E0BA
:1000900001C01D92A734B207E1F70E9469000C94D9
:1000A00093040C940000AC0162E080E00E94250201
:1000B0000895AC0160E083E00E9425020895319B21
:1000C00004C080E00E945F01089580E00E947801F2
:1000D00008950F93CF93DF9300D0CDB7DEB786E0BE
:1000E0000E9455018FE389838AE08A83BE016F5F96
:1000F0007F4F80E00E94160260E070E083E00E9483
:100100001602BE016E5F7F4F81E00E94160243E53A
:1001100050E060E081E00E94250246E051E061E0AD
:1001200081E00E94250200E028EE33E041E06AE031
:1001300071E083E590E00E94900124EF31E041E01E
:1001400069E071E083E590E00E9490012AEF30E0E1
:1001500041E068E071E083E590E00E9490012DE7C6
:1001600030E041E067E071E083E590E00E949001BB
:100170002AE030E043E066E071E08FE590E00E9425
:10018000900120ED37E043E06CE071E089E590E01C
:100190000E9490010E94BB0180E090E00F900F90C0
:1001A000DF91CF910F910895CF93C82F0E94FF0147
:1001B0002C2F30E0C901880F991F220F331F220F07
:1001C000331F220F331F820F931F0E9472039093DD
:1001D000160180931501EFE0F1E0C1831082938353
:1001E00082831582148281E080930E01CF9108955D
:1001F000CF93DF93EFE0F1E01582148280818823B2
:1002000069F1E0911101F091120190E09C01220F3F
:10021000331F880F991F880F991F880F991F280F68
:10022000391F2E0F3F1FC0E0D0E0DF01868197818C
:10023000181619065CF08185811108C0209729F0F5
:1002400098858085981708F0DE01ED013A96E2174F
:10025000F30759F7D0931401C0931301DF91CF91A5
:10026000089580910F018823F9F0E0911101F09138
:10027000120190E0AC01440F551F880F991F880FA1
:10028000991F880F991F480F591F4E0F5F1F31E0AC
:100290002185232786819781821B910997838683F5
:1002A0003A96E417F507A1F7089590910E01911180
:1002B00005C00E94D40081E080930E0108959091C2
:1002C00010018917A0F490E0FC01EE0FFF1F880FCA
:1002D000991F880F991F880F991F8E0F9F1FE091FC
:1002E0001101F0911201E80FF91F81E08187089553
:1002F00090911001891798F490E0FC01EE0FFF1F18
:10030000880F991F880F991F880F991F8E0F9F1FA5
:10031000E0911101F0911201E80FF91F1186089583
:100320000F93CF93DF93EFE0F1E0A0815181A51708
:10033000F0F4EF01B0E0FD01EE0FFF1FAA0FBB1FAD
:10034000AA0FBB1FAA0FBB1FAE0FBF1FEA81FB8105
:10035000EA0FFB1F91838083738362833583248339
:10036000378326834087018788818F5F8883DF9169
:10037000CF910F91089582E080936E0099EF97BD21
:1003800084BD789483E085BDCFE0D1E00E94F80081
:10039000AC81BD811097D1F3ED91FC91119712962C
:1003A0008D919C9113970995EC81FD8184819581B4
:1003B00097838683EBCF1F920F920FB60F92112473
:1003C0002F933F934F935F936F937F938F939F935D
:1003D000AF93BF93EF93FF930E943101FF91EF9191
:1003E000BF91AF919F918F917F916F915F914F914D
:1003F0003F912F910F900FBE0F901F901895CF93A4
:10040000DF930E945B02C7E1D1E0998388830E9459
:10041000C4029D838C830E94FE029B838A830E9478
:1004200060039F838E83DF91CF910895E82FCB01E6
:10043000F0E0EE0FFF1FE95EFE4F0190F081E02D2E
:100440000190F081E02D09950895E82FCA01F0E0B0
:10045000EE0FFF1FE95EFE4FA081B181E62FF0E0B5
:10046000BF01660F771F1296ED91FC911397E60F6F
:10047000F71F0190F081E02D09950895FC0194B1DA
:100480008081892B84B980E00895FC0195B1808139
:10049000892B85B980E00895FC0195B18081809514
:1004A000892385B980E00895FC0195B18081892771
:1004B00085B980E00895AFE1B1E08EE392E0119656
:1004C0009C938E93E3E2F1E085E492E09183808354
:1004D0008CE492E09383828384E592E09583848325
:1004E0001396FC93EE931297CD0108952C9893B137
:1004F000907F8F70892B08952C9A8FE39FE101974D
:10050000F1F700C000002C9808952D9880EF0E940C
:10051000760285B90E947C028FE00E94760285B93E
:100520000E947C0280E00895CF93FC01C0812D9A47
:100530008C2F82950E94760285B90E947C028C2FB6
:100540000E94760285B90E947C0280E0CF910895D6
:100550002D9882EC0E94760285B90E947C020E944E
:100560007C028CE20E94760285B90E947C0208958A
:1005700084B18F6384B985B1807685B90E94A80261
:100580000E94850280E00895EDE2F1E085E892E0C6
:100590009383828384E992E091838083A9E2B1E02E
:1005A00088EB92E011969C938E931396FC93EE93B6
:1005B0001297CD010895FC01208184E090E0022E85
:1005C00002C0959587950A94E2F78093890020935D
:1005D000880082E080936F0078948FE080938100A0
:1005E00080E0089590933A018093390180E0089566
:1005F00090933C0180933B0180E00895E5E3F1E0B6
:1006000082EF92E09183808388EF92E093838283EC
:10061000A1E3B1E08BED92E011969C938E9313963B
:10062000FC93EE931297CD0108951F920F920FB68F
:100630000F9211242F933F934F935F936F937F9368
:100640008F939F93AF93BF93EF93FF93A9E3B1E091
:10065000ED91FC91119712968D919C9113970995AC
:10066000FF91EF91BF91AF919F918F917F916F918A
:100670005F914F913F912F910F900FBE0F901F9060
:1006800018953898ECE7F0E0808180648083EAE791
:10069000F0E08081876C808380E00895DC01909198
:1006A0007A0096FD0BC0EAE7F0E0908190649083B9
:1006B00080917800909179008D939C9380E00895CB
:1006C0008EE493E09093420180934101EDE3F1E0E9
:1006D00081E493E09183808381E491E0938382833A
:1006E000CF0108950F931F93CF93DF93823091052D
:1006F00010F482E090E0E0914501F091460120E0A5
:1007000030E0A0E0B0E0309719F1408151810281E2
:10071000138148175907C8F08417950769F4109793
:1007200031F012960C93129713961C9327C00093E6
:1007300045011093460122C02115310519F04217D9
:10074000530718F49A01BD01EF01DF01F801DBCF77
:1007500021153105F9F0281B390B2430310580F4BF
:100760008A819B816115710521F0FB01938382834E
:1007700004C09093460180934501FE01329644C027
:10078000FE01E20FF31F81939193225031093983C7
:1007900028833AC02091430130914401232B41F436
:1007A00020910201309103013093440120934301D1
:1007B00020910001309101012115310541F42DB73F
:1007C0003EB74091040150910501241B350BE09187
:1007D0004301F0914401E217F307A0F42E1B3F0BF5
:1007E0002817390778F0AC014E5F5F4F24173507A3
:1007F00048F04E0F5F1F5093440140934301819393
:10080000919302C0E0E0F0E0CF01DF91CF911F9122
:100810000F910895CF93DF93009709F481C0FC01F5
:10082000329713821282A0914501B0914601109730
:1008300081F420813181820F931F209143013091F7
:1008400044012817390751F5F0934401E09343011F
:1008500067C0ED0120E030E0CE17DF0740F44A81A9
:100860005B819E0141155105F1F0EA01F5CFD3837B
:10087000C28340815181840F951FC817D90759F44D
:1008800088819981840F951F0296918380838A8144
:100890009B81938382832115310529F4F0934601CE
:1008A000E09345013DC0E901FB83EA8349915991F9
:1008B000C40FD51FEC17FD0761F480819181840F6F
:1008C000951F0296E90199838883828193819B8396
:1008D0008A83E0E0F0E012968D919C911397009747
:1008E00019F0FD01DC01F7CF8D919C9111979D01CD
:1008F0002E5F3F4F820F931F20914301309144019F
:100900002817390769F4309729F41092460110929C
:10091000450102C013821282B0934401A0934301A7
:0A092000DF91CF910895F894FFCF06
:0C092A000000470120001008040201003A
:00000001FF
