:100000000C9434000C9451000C9451000C94510049
:100010000C9451000C9451000C9451000C9451001C
:100020000C9451000C9451000C9451000C94D40089
:100030000C9451000C9451000C9451000C945100FC
:100040000C9451000C9451000C9451000C945100EC
:100050000C9451000C9451000C9451000C945100DC
:100060000C9451000C94510011241FBECFEFD8E026
:10007000DEBFCDBF21E0A6E0B1E001C01D92AE31F0
:10008000B207E1F711E0A0E0B1E0ECE6F5E002C074
:1000900005900D92A630B107D9F70E9453000C9439
:1000A000B4020C9400000E94A20060E070E081E0C5
:1000B0000E9407010E94AF00FDCF0E94F80086E079
:1000C00090E00E949301FC0111821082138212823F
:1000D000158214820895A0910601B0910701ED9157
:1000E000FC91119715961C921E9214973097A9F0C7
:1000F00084819581181619065CF005C0848195816C
:10010000181619062CF01596FC93EE931497089583
:100110000780F085E02D309789F70895E09106017A
:10012000F09107010190F081E02D309751F084812A
:1001300095810197958384830780F085E02D309722
:10014000B1F708958091060190910701892B31F450
:100150000E945D009093070180930601089582E05C
:1001600080936F008AEF809388008BE080938100FA
:1001700078940E946B00E0910601F09107010480E1
:10018000F581E02D3097A9F30190F081E02D0995DC
:10019000E0910601F09107010480F581E02D828154
:1001A000938195838483E5CF1F920F920FB60F92B0
:1001B00011242F933F934F935F936F937F938F936C
:1001C0009F93AF93BF93EF93FF930E948E00FF9195
:1001D000EF91BF91AF919F918F917F916F915F91BF
:1001E0004F913F912F910F900FBE0F901F90189538
:1001F000CF93DF930E943301C8E0D1E099838883D5
:100200000E9487019B838A83DF91CF910895E82F15
:10021000CB01F0E0EE0FFF1FE85FFE4F0190F08191
:10022000E02D0190F081E02D09950895FC0194B135
:100230008081892B84B980E00895FC0195B180818B
:10024000892B85B980E00895FC0195B18081809566
:10025000892385B980E00895FC0195B180818927C3
:1002600085B980E00895ACE0B1E086E191E01196B7
:100270009C938E93E0E1F1E08DE191E091838083A6
:1002800084E291E0938382838CE291E0958384837E
:100290001396FC93EE931297CD0108952C9893B189
:1002A000907F8F70892B08952C9A8FE39FE101979F
:1002B000F1F700C000002C9808952D9882EC0E9460
:1002C0004E0185B90E9454010E9454018CE20E94A3
:1002D0004E0185B90E94540108952D9880EF0E9427
:1002E0004E0185B90E9454018FE00E944E0185B9EC
:1002F0000E945401089584B18F6384B985B18076DA
:1003000085B90E945D010E946D0180E00895E6E1DB
:10031000F1E08BE791E09183808380E191E093832A
:100320008283CF0108950F931F93CF93DF93823081
:10033000910510F482E090E0E0911C01F0911D0124
:1003400020E030E0A0E0B0E0309719F14081518129
:100350000281138148175907C8F08417950769F47B
:10036000109731F012960C93129713961C9327C096
:1003700000931C0110931D0122C02115310519F0B5
:100380004217530718F49A01BD01EF01DF01F8018C
:10039000DBCF21153105F9F0281B390B243031054D
:1003A00080F48A819B816115710521F0FB019383A3
:1003B000828304C090931D0180931C01FE0132963C
:1003C00044C0FE01E20FF31F819391932250310943
:1003D000398328833AC020911A0130911B01232BC5
:1003E00041F4209102013091030130931B012093CD
:1003F0001A0120910001309101012115310541F4CC
:100400002DB73EB74091040150910501241B350BD7
:10041000E0911A01F0911B01E217F307A0F42E1BE3
:100420003F0B2817390778F0AC014E5F5F4F241758
:10043000350748F04E0F5F1F50931B0140931A0180
:100440008193919302C0E0E0F0E0CF01DF91CF9182
:100450001F910F910895CF93DF93009709F481C006
:10046000FC01329713821282A0911C01B0911D01F0
:10047000109781F420813181820F931F20911A01FE
:1004800030911B012817390751F5F0931B01E093B8
:100490001A0167C0ED0120E030E0CE17DF0740F41D
:1004A0004A815B819E0141155105F1F0EA01F5CFCA
:1004B000D383C28340815181840F951FC817D90708
:1004C00059F488819981840F951F029691838083C6
:1004D0008A819B81938382832115310529F4F093CE
:1004E0001D01E0931C013DC0E901FB83EA834991B2
:1004F0005991C40FD51FEC17FD0761F480819181DC
:10050000840F951F0296E9019983888382819381E4
:100510009B838A83E0E0F0E012968D919C91139783
:10052000009719F0FD01DC01F7CF8D919C91119797
:100530009D012E5F3F4F820F931F20911A01309132
:100540001B012817390769F4309729F410921D010F
:1005500010921C0102C013821282B0931B01A0935F
:0C0560001A01DF91CF910895F894FFCFAD
:06056C0000001E0120004A
:00000001FF
