:100000000C9434000C9451000C9451000C94510049
:100010000C9451000C9451000C9451000C9451001C
:100020000C9451000C9451000C9451000C94B002AB
:100030000C9451000C9451000C949A010C945100B2
:100040000C9451000C9451000C9451000C945100EC
:100050000C9451000C9451000C9451000C945100DC
:100060000C9451000C94510011241FBECFEFD8E026
:10007000DEBFCDBF11E0A0E0B1E0ECEBF5E002C0E7
:1000800005900D92A630B107D9F721E0A6E0B1E0C6
:1000900001C01D92A932B207E1F70E9459000C94E9
:1000A000DC020C940000AC0162E080E00E94E00100
:1000B00008950F93CF93DF9300D0CDB7DEB787E0DD
:1000C0000E9445018FE389838AE08A83BE016F5FC6
:1000D0007F4F80E00E94D101BE016E5F7F4F81E0C3
:1000E0000E94D10143E550E060E081E00E94E00120
:1000F00040E051E061E081E00E94E00100E028EE94
:1001000033E041E064E071E083E590E00E944F015C
:1001100024EF31E041E063E071E083E590E00E948C
:100120004F012AEF30E041E062E071E083E590E0CA
:100130000E944F012DE730E041E061E071E083E58E
:1001400090E00E944F010E947A0180E090E00F90C1
:100150000F90DF91CF910F910895FF920F931F930E
:10016000CF93DF93CDB7DEB7F82E0DB71EB70E9441
:10017000BE018F2D90E09C01220F331F880F991F25
:10018000880F991F880F991F820F931F2DB73EB7B5
:10019000281B390B0FB6F8943EBF0FBE2DBF8DB78D
:1001A0009EB70196E7E0F1E0F182108293838283AB
:1001B0001582148281E0809306010FB6F8941EBF69
:1001C0000FBE0DBFDF91CF911F910F91FF9008954A
:1001D000CF93DF93E7E0F1E01582148280818823DA
:1001E00069F1E0910901F0910A0190E09C01220F70
:1001F000331F880F991F880F991F880F991F280F89
:10020000391F2E0F3F1FC0E0D0E0DF0186819781AC
:10021000181619065CF08185811108C0209729F015
:1002200098858085981708F0DE01ED013A96E2176F
:10023000F30759F7D0930C01C0930B01DF91CF91D5
:100240000895809107018823F9F0E0910901F09168
:100250000A0190E0AC01440F551F880F991F880FC9
:10026000991F880F991F480F591F4E0F5F1F31E0CC
:100270002185232786819781821B91099783868315
:100280003A96E417F507A1F70895909106019111A8
:1002900005C00E94AD0081E08093060108950F9390
:1002A000CF93DF93E7E0F1E0A08151815A17F0F09E
:1002B000EF01B0E0FD01EE0FFF1FAA0FBB1FAA0F59
:1002C000BB1FAA0FBB1FAE0FBF1FEA81FB81EA0F46
:1002D000FB1F9183808373836283358324833783F9
:1002E00026834087018788818F5F8883DF91CF9144
:1002F0000F91089582E080936E0099EF97BD84BDC1
:10030000789483E085BDC7E0D1E00E94E800AC812D
:10031000BD811097D1F3ED91FC91119712968D91BB
:100320009C9113970995EC81FD8184819581978338
:100330008683EBCF1F920F920FB60F9211242F934B
:100340003F934F935F936F937F938F939F93AF935D
:10035000BF93EF93FF930E942101FF91EF91BF9113
:10036000AF919F918F917F916F915F914F913F914D
:100370002F910F900FBE0F901F901895CF93DF9382
:100380000E941602CDE0D1E0998388830E946A0220
:100390009D838C830E9499029B838A83DF91CF91F6
:1003A0000895E82FCB01F0E0EE0FFF1FE35FFE4F53
:1003B0000190F081E02D0190F081E02D09950895E4
:1003C000E82FCA01F0E0EE0FFF1FE35FFE4FA081B0
:1003D000B181E62FF0E0BF01660F771F1296ED9115
:1003E000FC911397E60FF71F0190F081E02D09951E
:1003F0000895FC0194B18081892B84B980E008952F
:10040000FC0195B18081892B85B980E00895FC01BC
:1004100095B180818095892385B980E00895FC019C
:1004200095B18081892785B980E00895A3E1B1E085
:1004300089EF91E011969C938E93E7E1F1E080E0E3
:1004400092E09183808387E092E0938382838FE0C0
:1004500092E0958384831396FC93EE931297CD01DB
:1004600008952C9893B1907F8F70892B08952C9AC2
:100470008FE39FE10197F1F700C000002C980895E9
:100480002D9882EC0E94310285B90E9437020E94A9
:1004900037028CE20E94310285B90E94370208952A
:1004A0002D9880EF0E94310285B90E9437028FE0BB
:1004B0000E94310285B90E943702089584B18F638A
:1004C00084B985B1807685B90E9440020E945002AD
:1004D00080E00895EDE1F1E08EE592E09183808384
:1004E00087E191E093838283CF010895FC0120810D
:1004F00084E090E0022E02C0959587950A94E2F779
:10050000809389002093880082E080936F00789424
:100510008FE08093810080E008959093260180937E
:10052000250180E00895909328018093270180E0C1
:100530000895E7E1F1E08DE892E09183808383E91B
:1005400092E093838283A1E2B1E086E792E0119684
:100550009C938E931396FC93EE931297CD0108957E
:100560001F920F920FB60F9211242F933F934F9328
:100570005F936F937F938F939F93AF93BF93EF930B
:10058000FF93A5E2B1E0ED91FC91119712968D9148
:100590009C9113970995FF91EF91BF91AF919F9116
:1005A0008F917F916F915F914F913F912F910F901C
:0C05B0000FBE0F901F901895F894FFCF1D
:0605BC001008040201001A
:00000001FF
