:100000000C9434000C9451000C9451000C94510049
:100010000C9451000C9451000C9451000C9451001C
:100020000C9451000C9451000C9451000C94520209
:100030000C9451000C9451000C941C010C94510030
:100040000C9451000C9451000C9451000C945100EC
:100050000C9451000C9451000C9451000C945100DC
:100060000C9451000C94510011241FBECFEFD8E026
:10007000DEBFCDBF11E0A0E0B1E0E2E4F7E002C0F6
:1000800005900D92A630B107D9F721E0A6E0B1E0C6
:1000900001C01D92A733B207E1F70E9453000C94F0
:1000A0009F030C940000CF93DF931F92CDB7DEB770
:1000B00086E2898385E00E94F20060E070E082E0E1
:1000C0000E945301AE014F5F5F4F60E082E00E94EB
:1000D00062010E94FC0080E090E00F90DF91CF91E0
:1000E0000895CF93C82F0E9440012C2F30E0C90102
:1000F000880F991F220F331F220F331F220F331F28
:10010000820F931F0E947E0290930E0180930D0137
:10011000E7E0F1E0C1831082938382831582148229
:1001200081E080930601CF910895CF93DF93E7E0BC
:10013000F1E0158214828081882369F1E091090140
:10014000F0910A0190E09C01220F331F880F991F44
:10015000880F991F880F991F280F391F2E0F3F1FD7
:10016000C0E0D0E0DF0186819781181619065CF0A7
:100170008185811108C0209729F09885808598177E
:1001800008F0DE01ED013A96E217F30759F7D09334
:100190000C01C0930B01DF91CF910895809107016D
:1001A0008823F9F0E0910901F0910A0190E0AC0197
:1001B000440F551F880F991F880F991F880F991F8B
:1001C000480F591F4E0F5F1F31E02185232786817D
:1001D0009781821B9109978386833A96E417F507E6
:1001E000A1F7089590910601911105C00E94710038
:1001F00081E080930601089582E080936E0099EF7C
:1002000097BD84BD789483E085BDC7E0D1E00E94AE
:100210009500AC81BD811097D1F3ED91FC911197C0
:1002200012968D919C9113970995EC81FD818481A3
:10023000958197838683EBCF1F920F920FB60F9213
:1002400011242F933F934F935F936F937F938F93DB
:100250009F93AF93BF93EF93FF930E94CE00FF91C4
:10026000EF91BF91AF919F918F917F916F915F912E
:100270004F913F912F910F900FBE0F901F901895A7
:10028000CF93DF930E949801CFE0D1E099838883D8
:100290000E9401029D838C830E943B029B838A8380
:1002A000DF91CF910895E82FCB01F0E0EE0FFF1F13
:1002B000E15FFE4F0190F081E02D0190F081E02D93
:1002C00009950895E82FCA01F0E0EE0FFF1FE15FE6
:1002D000FE4FA081B181E62FF0E0BF01660F771FCE
:1002E0001296ED91FC911397E60FF71F0190F081A4
:1002F000E02D09950895FC0194B18081892B84B982
:1003000080E00895FC0195B18081892B85B980E05A
:100310000895FC0195B180818095892385B980E09D
:100320000895FC0195B18081892785B980E0089501
:10033000A5E1B1E08BE791E011969C938E93E9E102
:10034000F1E082E891E09183808389E891E09383F2
:10035000828381E991E0958384831396FC93EE93E5
:100360001297CD0108952C9893B1907F8F70892BAF
:1003700008952C9A8FE39FE10197F1F700C00000E8
:100380002C9808952D9880EF0E94B30185B90E94A2
:10039000B9018FE00E94B30185B90E94B90180E0E4
:1003A0000895CF93FC01C0812D9A8C2F82950E94D5
:1003B000B30185B90E94B9018C2F0E94B30185B9A0
:1003C0000E94B90180E0CF9108952D9882EC0E949F
:1003D000B30185B90E94B9010E94B9018CE20E9463
:1003E000B30185B90E94B901089584B18F6384B9BE
:1003F00085B1807685B90E94E5010E94C20180E046
:100400000895E3E2F1E082EC91E09383828381ED51
:1004100091E091838083AFE1B1E085EF91E01196A7
:100420009C938E931396FC93EE931297CD010895AF
:10043000FC01208184E090E0022E02C09595879512
:100440000A94E2F7809389002093880082E08093E9
:100450006F0078948FE08093810080E008959093FE
:10046000300180932F0180E00895909332018093B2
:10047000310180E00895EBE2F1E08FE292E09183B8
:10048000808385E392E093838283A7E2B1E088E1F1
:1004900092E011969C938E931396FC93EE93129791
:1004A000CD0108951F920F920FB60F9211242F9332
:1004B0003F934F935F936F937F938F939F93AF93EC
:1004C000BF93EF93FF93AFE2B1E0ED91FC911197F1
:1004D00012968D919C9113970995FF91EF91BF9181
:1004E000AF919F918F917F916F915F914F913F91CC
:1004F0002F910F900FBE0F901F9018950F931F9381
:10050000CF93DF938230910510F482E090E0E09188
:100510003501F091360120E030E0A0E0B0E0309706
:1005200019F1408151810281138148175907C8F0A0
:100530008417950769F4109731F012960C9312976F
:1005400013961C9327C0009335011093360122C0E7
:100550002115310519F04217530718F49A01BD010E
:10056000EF01DF01F801DBCF21153105F9F0281B80
:10057000390B2430310580F48A819B816115710526
:1005800021F0FB019383828304C090933601809312
:100590003501FE01329644C0FE01E20FF31F819344
:1005A000919322503109398328833AC02091330135
:1005B00030913401232B41F4209102013091030149
:1005C00030933401209333012091000130910101D7
:1005D0002115310541F42DB73EB7409104015091EA
:1005E0000501241B350BE0913301F0913401E21732
:1005F000F307A0F42E1B3F0B2817390778F0AC0146
:100600004E5F5F4F2417350748F04E0F5F1F509322
:100610003401409333018193919302C0E0E0F0E014
:10062000CF01DF91CF911F910F910895CF93DF9369
:10063000009709F481C0FC01329713821282A091C5
:100640003501B0913601109781F420813181820FFC
:10065000931F20913301309134012817390751F548
:10066000F0933401E093330167C0ED0120E030E006
:10067000CE17DF0740F44A815B819E014115510589
:10068000F1F0EA01F5CFD383C28340815181840F19
:10069000951FC817D90759F488819981840F951F30
:1006A0000296918380838A819B8193838283211523
:1006B000310529F4F0933601E09335013DC0E9019D
:1006C000FB83EA8349915991C40FD51FEC17FD07AD
:1006D00061F480819181840F951F0296E9019983CD
:1006E0008883828193819B838A83E0E0F0E0129685
:1006F0008D919C911397009719F0FD01DC01F7CFC4
:100700008D919C9111979D012E5F3F4F820F931FFA
:1007100020913301309134012817390769F430975B
:1007200029F4109236011092350102C01382128210
:10073000B0933401A0933301DF91CF910895F894E1
:02074000FFCFE9
:0607420000003701200059
:00000001FF
