:100000000C9434000C9451000C9451000C94510049
:100010000C9451000C9451000C9451000C9451001C
:100020000C9451000C9451000C9451000C9440011C
:100030000C9451000C9451000C9451000C945100FC
:100040000C9451000C9451000C9451000C945100EC
:100050000C9451000C9451000C9451000C945100DC
:100060000C9451000C94510011241FBECFEFD8E026
:10007000DEBFCDBF21E0A6E0B1E001C01D92AC30F3
:10008000B207E1F711E0A0E0B1E0EEE0F5E002C078
:1000900005900D92A630B107D9F70E946B000C9421
:1000A00085020C94000095B181E0892785B90895F7
:1000B00095B182E0892785B9089595B188E08927AF
:1000C00085B90895319B03C085B1846002C085B1B4
:1000D0008B7F85B90895209A219A229A239A17B87E
:1000E0000E94F00041E068EE73E083E590E00E943A
:1000F000FD0041E064EF71E088E590E00E94FD00C2
:1001000041E064E670E08DE590E00E94FD0041E092
:1001100065E070E082E690E00E94FD000E941B0115
:10012000FDCF86E090E00E946401FC011182108204
:1001300013821282158214820895EF92FF921F9308
:10014000CF93DF937C01EB01142F89E090E00E94B4
:100150006401FC01F182E082D383C2831683D583DC
:10016000C48310861782DF91CF911F91FF90EF908B
:100170000895A0910601B0910701ED91FC911197AE
:1001800015961C921E9214973097A9F08481958140
:10019000181619065CF005C0848195811816190699
:1001A0002CF01596FC93EE93149708950780F08534
:1001B000E02D309789F70895E0910601F09107014D
:1001C0000190F081E02D309751F084819581019765
:1001D000958384830780F085E02D3097B1F70895EB
:1001E0008091060190910701892B31F40E949100C2
:1001F000909307018093060108950E949D00E0916D
:100200000601F091070120813181232B59F491835C
:100210008083E0910601F0910701938382839583A7
:1002200084830895A281B38118969C938E93179727
:1002300093838283089582E080936F008AEF809396
:1002400088008BE08093810078940E94B900E0914F
:100250000601F09107010480F581E02D3097A9F3A4
:100260000190F081E02D0995E0910601F0910701E0
:100270000480F581E02D8281938195838483E5CF8D
:100280001F920F920FB60F9211242F933F934F930B
:100290005F936F937F938F939F93AF93BF93EF93EE
:1002A000FF930E94DC00FF91EF91BF91AF919F916E
:1002B0008F917F916F915F914F913F912F910F900F
:1002C0000FBE0F901F9018950F931F93CF93DF933E
:1002D0008230910510F482E090E0E0910A01F09103
:1002E0000B0120E030E0A0E0B0E0309719F1408150
:1002F00051810281138148175907C8F08417950767
:1003000069F4109731F012960C93129713961C9380
:1003100027C000930A0110930B0122C0211531055B
:1003200019F04217530718F49A01BD01EF01DF01DC
:10033000F801DBCF21153105F9F0281B390B2430EA
:10034000310580F48A819B816115710521F0FB01E3
:100350009383828304C090930B0180930A01FE0172
:10036000329644C0FE01E20FF31F81939193225015
:100370003109398328833AC020910801309109015D
:10038000232B41F4209102013091030130930901A4
:1003900020930801209100013091010121153105C0
:1003A00041F42DB73EB74091040150910501241B43
:1003B000350BE0910801F0910901E217F307A0F471
:1003C0002E1B3F0B2817390778F0AC014E5F5F4FAB
:1003D0002417350748F04E0F5F1F509309014093D3
:1003E00008018193919302C0E0E0F0E0CF01DF913A
:1003F000CF911F910F910895CF93DF93009709F448
:1004000081C0FC01329713821282A0910A01B0913F
:100410000B01109781F420813181820F931F20916D
:100420000801309109012817390751F5F0930901A6
:10043000E093080167C0ED0120E030E0CE17DF0750
:1004400040F44A815B819E0141155105F1F0EA01BA
:10045000F5CFD383C28340815181840F951FC81784
:10046000D90759F488819981840F951F0296918349
:1004700080838A819B81938382832115310529F4AE
:10048000F0930B01E0930A013DC0E901FB83EA838D
:1004900049915991C40FD51FEC17FD0761F4808174
:1004A0009181840F951F0296E90199838883828147
:1004B00093819B838A83E0E0F0E012968D919C917A
:1004C0001397009719F0FD01DC01F7CF8D919C91F6
:1004D00011979D012E5F3F4F820F931F20910801BE
:1004E000309109012817390769F4309729F41092DF
:1004F0000B0110920A0102C013821282B09309010B
:0E050000A0930801DF91CF910895F894FFCFEA
:06050E0000000C012000BA
:00000001FF
