:100000000C9434000C9451000C9451000C94510049
:100010000C9451000C9451000C9451000C9451001C
:100020000C9451000C9451000C9451000C94CE018E
:100030000C9451000C9451000C9451000C945100FC
:100040000C9451000C9451000C9451000C945100EC
:100050000C9451000C9451000C9451000C945100DC
:100060000C9451000C94510011241FBECFEFD8E026
:10007000DEBFCDBF11E0A0E0B1E0E0E5F5E002C0F9
:1000800005900D92A430B107D9F721E0A4E0B1E0CA
:1000900001C01D92AD31B207E1F70E947B000C94C4
:1000A000A6020C940000AC0162E080E00E94100205
:1000B0000895CF93DF931F92CDB7DEB784E0898395
:1000C000319B0BC0AE014F5F5F4F60E080E00E944C
:1000D000100281E00E9451010AC0AE014F5F5F4FE4
:1000E00061E080E00E94100281E00E946A010F90AE
:1000F000DF91CF910895CF93DF931F92CDB7DEB7F5
:1001000086E00E9447018FE38983BE016F5F7F4FC6
:1001100080E00E94010200E028EE33E041E062E06E
:1001200071E083E590E00E94820124EF31E041E03C
:1001300061E071E083E590E00E9482012AE030E016
:1001400043E060E070E089E590E00E9482012AEFE0
:1001500030E041E060E071E083E590E00E948201E0
:100160000E94AD01FDCFFF920F931F93CF93DF93BA
:10017000CDB7DEB7F82E0DB71EB70E94F2018F2D56
:1001800090E09C01220F331F880F991F880F991F41
:10019000880F991F820F931F2DB73EB7281B390B6D
:1001A0000FB6F8943EBF0FBE2DBF8DB79EB7019618
:1001B000E5E0F1E0F182108293838283158214825C
:1001C00081E0809304010FB6F8941EBF0FBE0DBFEF
:1001D000DF91CF911F910F91FF900895CF93DF93FF
:1001E000E5E0F1E0158214828081882369F1E091D5
:1001F0000701F091080190E09C01220F331F880F46
:10020000991F880F991F880F991F280F391F2E0FCC
:100210003F1FC0E0D0E0DF018681978118161906E4
:100220005CF08185811108C0209729F09885808530
:10023000981708F0DE01ED013A96E217F30759F737
:10024000D0930A01C0930901DF91CF910895809165
:1002500005018823D9F0E0910701F091080190E0B1
:100260009C01220F331F880F991F880F991F880F39
:10027000991F280F391F2E0F3F1F868197810197E5
:10028000978386833A96E217F307B9F7089590911A
:100290000401911105C00E94B30081E08093040124
:1002A0000895909106018917A0F490E0FC01EE0FEB
:1002B000FF1F880F991F880F991F880F991F8E0F96
:1002C0009F1FE0910701F0910801E80FF91F81E0FD
:1002D0008187089590910601891798F490E0FC01B8
:1002E000EE0FFF1F880F991F880F991F880F991F06
:1002F0008E0F9F1FE0910701F0910801E80FF91F91
:10030000118608950F93CF93DF93E5E0F1E0A0818C
:100310005181A517F0F4EF01B0E0FD01EE0FFF1FD2
:10032000AA0FBB1FAA0FBB1FAA0FBB1FAE0FBF1F79
:10033000EA81FB81EA0FFB1F9183808373836283D1
:1003400035832483378326834087018788818F5FA5
:100350008883DF91CF910F91089582E080936F00A1
:100360008AEF809388008BE0809381007894C5E0C9
:10037000D1E00E94EE00AC81BD811097D1F3ED91E8
:10038000FC91119712968D919C9113970995EC8190
:10039000FD818481958197838683EBCF1F920F9295
:1003A0000FB60F9211242F933F934F935F936F9348
:1003B0007F938F939F93AF93BF93EF93FF930E948D
:1003C0002701FF91EF91BF91AF919F918F917F9105
:1003D0006F915F914F913F912F910F900FBE0F90B2
:1003E0001F901895CF93DF930E944602CBE0D1E097
:1003F000998388830E949A029B838A83DF91CF919D
:100400000895E82FCB01F0E0EE0FFF1FE55FFE4FF0
:100410000190F081E02D0190F081E02D0995089583
:10042000E82FCA01F0E0EE0FFF1FE55FFE4FA0814D
:10043000B181E62FF0E0BF01660F771F1296ED91B4
:10044000FC911397E60FF71F0190F081E02D0995BD
:100450000895FC0194B18081892B84B980E00895CE
:10046000FC0195B18081892B85B980E00895FC015C
:1004700095B180818095892385B980E00895FC013C
:1004800095B18081892785B980E00895AFE0B1E01A
:1004900089E292E011969C938E93E3E1F1E080E390
:1004A00092E09183808387E392E0938382838FE35A
:1004B00092E0958384831396FC93EE931297CD017B
:1004C00008952C9893B1907F8F70892B08952C9A62
:1004D0008FE39FE10197F1F700C000002C98089589
:1004E0002D9882EC0E94610285B90E9467020E94E9
:1004F00067028CE20E94610285B90E94670208953A
:100500002D9880EF0E94610285B90E9467028FE0FA
:100510000E94610285B90E946702089584B18F63C9
:1005200084B985B1807685B90E9470020E948002EC
:1005300080E00895E9E1F1E08EE892E09183808324
:1005400083E191E093838283CF010895F894FFCFF4
:04055000080201009C
:00000001FF
