:100000000C9434000C9451000C9451000C94510049
:100010000C9451000C9451000C9451000C9451001C
:100020000C9451000C9451000C9451000C94B602A5
:100030000C9451000C9451000C946B010C945100E1
:100040000C9451000C9451000C9451000C945100EC
:100050000C9451000C9451000C944C030C945100DE
:100060000C9451000C94510011241FBECFEFD8E026
:10007000DEBFCDBF11E0A0E0B1E0E6E3F9E002C0F1
:1000800005900D92A231B107D9F721E0A2E1B1E0CC
:1000900001C01D92A136B207E1F70E9460000C94E6
:1000A00099040C94000080911201893011F08F5F47
:1000B00001C080E080931201805D80930D0108955E
:1000C0000F93CF93DF9300D0CDB7DEB785E090E0FC
:1000D0009A83898381E00E941601BE016F5F7F4F82
:1000E00081E00E94A60143E550E060E081E00E94CB
:1000F000B50140E050E061E081E00E94B5010E945E
:10010000130300E029E130E043E066E071E088E2BB
:1001100093E00E9420010E944B0180E090E00F904C
:100120000F90DF91CF910F910895CF93C82F0E9428
:100130008F012C2F30E0C901880F991F220F331F28
:10014000220F331F220F331F820F931F0E94780349
:1001500090931B0180931A01E4E1F1E0C1831082C6
:10016000938382831582148281E080931301CF915F
:100170000895CF93DF93E4E1F1E01582148280814A
:10018000882369F1E0911601F091170190E09C013C
:10019000220F331F880F991F880F991F880F991FEF
:1001A000280F391F2E0F3F1FC0E0D0E0DF018681EE
:1001B0009781181619065CF08185811108C0209777
:1001C00029F098858085981708F0DE01ED013A96B0
:1001D000E217F30759F7D0931901C0931801DF9183
:1001E000CF910895809114018823F9F0E0911601D0
:1001F000F091170190E0AC01440F551F880F991F33
:10020000880F991F880F991F480F591F4E0F5F1FA6
:1002100031E02185232786819781821B910997836D
:1002200086833A96E417F507A1F708959091130194
:10023000911105C00E94950081E0809313010895FB
:100240000F93CF93DF93E4E1F1E0A0815181A517F3
:10025000F0F4EF01B0E0FD01EE0FFF1FAA0FBB1F8E
:10026000AA0FBB1FAA0FBB1FAE0FBF1FEA81FB81E6
:10027000EA0FFB1F9183808373836283358324831A
:10028000378326834087018788818F5F8883DF914A
:10029000CF910F91089582E080936E0099EF97BD02
:1002A00084BD789483E085BDC4E1D1E00E94B900AB
:1002B000AC81BD811097D1F3ED91FC91119712960D
:1002C0008D919C9113970995EC81FD818481958195
:1002D00097838683EBCF1F920F920FB60F92112454
:1002E0002F933F934F935F936F937F938F939F933E
:1002F000AF93BF93EF93FF930E94F200FF91EF91B2
:10030000BF91AF919F918F917F916F915F914F912D
:100310003F912F910F900FBE0F901F901895CF9384
:10032000DF930E94EB01CCE1D1E0998388830E94A6
:1003300065029D838C830E949F029B838A830E9417
:1003400001039F838E83DF91CF910895E82FCB0126
:10035000F0E0EE0FFF1FE45EFE4F0190F081E02D14
:100360000190F081E02D09950895E82FCA01F0E091
:10037000EE0FFF1FE45EFE4FA081B181E62FF0E09B
:10038000BF01660F771F1296ED91FC911397E60F50
:10039000F71F0190F081E02D09950895FC0194B1BB
:1003A0008081892B84B980E00895FC0195B180811A
:1003B000892B85B980E00895FC0195B180818095F5
:1003C000892385B980E00895FC0195B18081892752
:1003D00085B980E00895A4E2B1E08EEC91E0119639
:1003E0009C938E93E8E2F1E085ED91E09183808328
:1003F0008CED91E09383828384EE91E095838483F6
:100400001396FC93EE931297CD0108952C9893B117
:10041000907F8F70892B08952C9A8FE39FE101972D
:10042000F1F700C000002C980895CF93FC01C08123
:100430002D988C2F82950E94060285B90E940C028D
:100440008C2F0E94060285B90E940C0280E0CF9199
:100450000895CF93FC01C0812D9A8C2F82950E9424
:10046000060285B90E940C028C2F0E94060285B9F3
:100470000E940C0280E0CF9108952D9882EC0E949A
:10048000060285B90E940C020E940C028CE20E94B6
:10049000060285B90E940C020895CF93DF931F9244
:1004A000CDB7DEB78FE0898384B18F6384B985B11E
:1004B000807685B90E943D02CE0101960E94150208
:1004C00080E00F90DF91CF910895E2E3F1E085E1C4
:1004D00092E09383828389E292E091838083AEE20B
:1004E000B1E08DE492E011969C938E931396FC9369
:1004F000EE931297CD010895FC01208184E090E0F5
:10050000022E02C0959587950A94E2F780938900A0
:100510002093880082E080936F0078948FE080932E
:10052000810080E0089590933F0180933E0180E038
:100530000895909341018093400180E00895EAE39B
:10054000F1E083E992E09183808389E992E09383EB
:100550008283A6E3B1E08CE792E011969C938E93A0
:100560001396FC93EE931297CD0108951F920F926C
:100570000FB60F9211242F933F934F935F936F9376
:100580007F938F939F93AF93BF93EF93FF93AEE3CC
:10059000B1E0ED91FC91119712968D919C9113977A
:1005A0000995FF91EF91BF91AF919F918F917F91AD
:1005B0006F915F914F913F912F910F900FBE0F90D0
:1005C0001F9018953898ECE7F0E080818064808374
:1005D000EAE7F0E08081876C808380E00895DC01A9
:1005E00090917A0096FD0BC0EAE7F0E0908190646C
:1005F000908380917800909179008D939C9380E016
:1006000008958FEE92E09093470180934601E2E4D3
:10061000F1E082EE92E09183808386E491E093831F
:100620008283CF01089560E070E082E00E94A6011D
:1006300041E151E061E082E00E94B5014FE051E00C
:1006400061E082E00E94B5011092480180E00895C7
:1006500020914801820F911DFC012081222399F0F5
:10066000AC0160E082E00E94B501809148018F5F9B
:1006700080934801803179F440E151E061E082E00B
:100680000E94B50108954FE051E061E082E00E94D0
:10069000B5011092480108951F920F920FB60F9264
:1006A00011242F933F934F935F936F937F938F9377
:1006B0009F93AF93BF93EF93FF93A9E4B1E0ED91C4
:1006C000FC91119712968D919C9113970995FF912A
:1006D000EF91BF91AF919F918F917F916F915F91BA
:1006E0004F913F912F910F900FBE0F901F90189533
:1006F0000F931F93CF93DF938230910510F482E024
:1007000090E0E0915F01F091600120E030E0A0E036
:10071000B0E0309719F1408151810281138148176F
:100720005907C8F08417950769F4109731F01296AD
:100730000C93129713961C9327C000935F0110939C
:10074000600122C02115310519F04217530718F432
:100750009A01BD01EF01DF01F801DBCF2115310561
:10076000F9F0281B390B2430310580F48A819B81F4
:100770006115710521F0FB019383828304C090937E
:10078000600180935F01FE01329644C0FE01E20FDA
:10079000F31F8193919322503109398328833AC002
:1007A00020915D0130915E01232B41F420910201E3
:1007B0003091030130935E0120935D01209100018F
:1007C000309101012115310541F42DB73EB740911B
:1007D000040150910501241B350BE0915D01F0915E
:1007E0005E01E217F307A0F42E1B3F0B2817390711
:1007F00078F0AC014E5F5F4F2417350748F04E0F7D
:100800005F1F50935E0140935D018193919302C0FD
:10081000E0E0F0E0CF01DF91CF911F910F910895BB
:10082000CF93DF93009709F481C0FC0132971382C4
:100830001282A0915F01B0916001109781F4208134
:100840003181820F931F20915D0130915E01281745
:10085000390751F5F0935E01E0935D0167C0ED014A
:1008600020E030E0CE17DF0740F44A815B819E0133
:1008700041155105F1F0EA01F5CFD383C2834081E0
:100880005181840F951FC817D90759F48881998120
:10089000840F951F0296918380838A819B81938325
:1008A00082832115310529F4F0936001E0935F0103
:1008B0003DC0E901FB83EA8349915991C40FD51FDB
:1008C000EC17FD0761F480819181840F951F0296DA
:1008D000E90199838883828193819B838A83E0E005
:1008E000F0E012968D919C911397009719F0FD01FD
:1008F000DC01F7CF8D919C9111979D012E5F3F4FA9
:10090000820F931F20915D0130915E0128173907F6
:1009100069F4309729F41092600110925F0102C0CF
:1009200013821282B0935E01A0935D01DF91CF919B
:060930000895F894FFCFCA
:100936000000610120006C6162656C3A2030008025
:02094600C001EE
:00000001FF
